:100000000010002099040000810400008304000017
:1000100000000000000000000000000000000000E0
:10002000000000000000000000000000810400004B
:1000300000000000000000008104000081040000B6
:10004000810400008104000081040000810400009C
:10005000810400008104000081040000810400008C
:10006000810400008104000081040000810400007C
:10007000810400008104000081040000810400006C
:100080000000000000000000000000000000000070
:100090000000000000000000000000000000000060
:1000A0000000000000000000000000000000000050
:1000B0000000000000000000000000000000000040
:1000C00010B5064C2378002B07D1054B002B02D02E
:1000D000044800E000BF0123237010BD7001002020
:1000E000000000005C3C0000044B10B5002B03D066
:1000F0000349044800E000BF10BDC04600000000F6
:10010000740100205C3C0000402292029A1A924640
:100110007047C046174B002B00D1134B9D46FFF78D
:10012000F3FF00218B460F461348144A121A03F0BE
:100130001AFC0E4B002B00D098470D4B002B00D023
:1001400098470020002104000D000D48002802D02F
:100150000C4800E000BF03F0D9FB2000290000F0AC
:1001600057FA03F0BDFBC046000008000000000085
:100170008D04000000100020700100206C0200209F
:100180000000000000000000094B5A68920801239B
:1001900013405A425A41D2B2002B06D1054B1B786C
:1001A000002B02D1044B01211970024B1A707047C9
:1001B000000004408D0100208C01002010B50023B8
:1001C00000220021022000F007FC002800D001BE20
:1001D000034B64220349044800F014F910BDC046E3
:1001E0008901000090010020A001002010B584B01A
:1001F000040000230393029301930133009300232F
:10020000FF221C21074801F0E5F8002800D001BEBC
:1002100022000549034801F0B5F9002800D001BECD
:1002200004B010BDD00100200000484210B50348C2
:1002300001F0E6F9002800D001BE10BDD001002079
:1002400010B5034801F0F8F9002800D001BE10BD38
:10025000D001002008490A780132012313400B70B5
:1002600002D1064A01211170012B00D07047044BC6
:1002700001221A70FAE7C0460202002001020020A3
:100280000002002010B5002306220121232000F0E7
:10029000A3FB002800D001BE00230622012122205A
:1002A00000F09AFB002800D001BE002306220121A5
:1002B000212000F091FB002800D001BE002306227F
:1002C0000121202000F088FB002800D001BE00237F
:1002D000062201210E2000F07FFB002800D001BE85
:1002E0000023062201210D2000F076FB002800D01B
:1002F00001BE0023062201210C2000F06DFB002826
:1003000000D001BE0023062201210B2000F064FB77
:10031000002800D001BE002306220121182000F091
:100320005BFB002800D001BE00230622012117201C
:1003300000F052FB002800D001BE0023062201215C
:10034000112000F049FB002800D001BE0023062246
:100350000121102000F040FB002800D001BE034B1B
:10036000034A0449044800F04DF810BD550200004E
:10037000001BB700040200201402002010B50C4B33
:100380000821196404221A6402201864033A1A64CA
:10039000084B1A64084B80241C6418641A64074BC9
:1003A0003F321A64203A1A64103A1A64196410BD74
:1003B0000004044000030440000204400001044023
:1003C00010B50C4B0821596404225A640220586469
:1003D000033A5A64084B5A64084B80245C6458649E
:1003E0005A64074B3F325A64203A5A64103A5A64AE
:1003F000596410BD0004044000030440000204409E
:100400000001044070B582B005000C001E00002001
:100410008860013A4A604870887001230B70C86098
:100420000022FF21280001F097FC002800D001BE27
:100430002100280001F0E6FC002800D001BE0F4991
:10044000280001F0F3FB002800D001BE2C00083486
:1004500000223100200001F02DFA01230093023325
:1004600001222100686801F069FA280001F0A0FC6F
:10047000002800D001BE02B070BDC04610270000A9
:10048000FEE710B502F048F810BD704710B5FFF751
:10049000FCFF10BD7047000010B5FFF7FBFF00F038
:1004A0003FF8174CC0221749200003F053FA164BAF
:1004B0009C60BFF34F8F154A09E0990010684058BF
:1004C00054686050013391688B42F6D30C32104B64
:1004D0009A4201D20023F6E70E490AE09A00086822
:1004E000844662440020106001334A689342F5D389
:1004F0000831094B994201D20023F6E7FFF70AFEC3
:10050000000000200000000000ED00E0683C00005A
:10051000743C0000743C00007C3C0000704700000C
:1005200010B5034B034A9A6372B6FFF7F7FF10BD8D
:10053000000003406588EDAC70B5030008000B2B8C
:1005400009D89B002D4AD3589F462D4C0825256479
:1005500001F0BEF8656470BD294C1025256401F0DA
:10056000B7F86564F7E7264C2025256401F0B0F85C
:100570006564F0E7224C4025256401F0A9F8656424
:10058000E9E7204C0125256401F0A2F86564E2E763
:100590001C4C0225256401F09BF86564DBE7194CCF
:1005A0008025256401F094F86564D4E7164C012594
:1005B000256401F08DF86564CDE7144C01252564B0
:1005C000322001F085F86564C5E7104C02252564EA
:1005D000322001F07DF86564BDE70C4C04252564EC
:1005E000322001F075F86564B5E7084C08252564EC
:1005F000322001F06DF86564ADE7C0469439000023
:1006000000010440000204400003044000040440D0
:1006100070B5002462B6FFF7D1FDFFF733FEFFF798
:10062000CFFE2B48FFF7E2FD3BE000241EE0053E35
:10063000F6B2FFF7FBFD642001F04AF8FFF700FE79
:10064000244B00221A700BE02B00002B08D1214B09
:100650001B78DAB2002B03D01E4B00211970150055
:10066000002D14D10134E4B20C2CDED03100200076
:10067000FFF762FF2300083BDBB2032BE4D8154BE6
:100680001B78002BD3D10123DFE7012511E0002DDA
:1006900007D0114B1B78002B0DD1104B1B78002B72
:1006A0000FD10C4B1B78002BEFD00A4B00221A7095
:1006B00000253226D4E7084B00221A70FFF780FE8F
:1006C000EBE7064B00221A70FFF758FEE9E7C04639
:1006D000C40900008C01002000020020010200205B
:1006E0000230800803D001300238FCD1C046C04639
:1006F0007047EFF3108072B6704780F31088704730
:1007000001BE01487047C04602020204024B0B6062
:100710000123136000207047C800002010B50300BB
:100720000A000078810704D4013A597801F01AFDD3
:1007300010BD013A5978002301F050FDF8E70000A0
:10074000F0B5C64600B506000D001C00069B984695
:10075000012797404808801902F0A8F8434618601E
:10076000B84200D91F60002C15D0434619683000EC
:1007700002F09CF802002078290001F041FCC31728
:10078000C0185840002C08D06368834207D300206B
:1007900080BCB846F0BD0020F4E70020F8E701482F
:1007A000F6E7C04600020204F0B5C64600B584B0C4
:1007B0000500884617001F4B9E6AB60903221640A3
:1007C0000124B44001F0B0FC64080019F0402B781B
:1007D0009A070FD5022B21D01D22400103AB0093B5
:1007E0003B004146FFF7ACFF002819D004B080BCA5
:1007F000B846F0BD002B0FD1082203AB00933B009D
:100800004146FFF79DFF0028F0D1039B5A1E287830
:10081000697801F0A7FCE9E71022EEE71522DCE792
:1008200003994A09013A1F230B402878697801F09F
:10083000D5FCDBE70000034010B5030000785978D1
:1008400001F026FD10BD10B50300002904D000788A
:10085000597801F079FD10BD0078597801F094FDC8
:10086000F9E710B503000078597801F0ABFD10BD31
:10087000F0B583B007000D00002814D0032D1DD85B
:10088000280001F0E7FBC6B20024B44214D201A84C
:10089000022303704570847000F08CF9002804D0A6
:1008A0000134E4B2F1E701BEE8E73D707C7001235A
:1008B000BB70044B7B6002E0034800E0034803B0D8
:1008C000F0BDC046C8390000020D02040202020455
:1008D00010B5002806D00378032B05D943681B68A0
:1008E000984710BD01BEF6E7FFF7BBFFF9E710B56B
:1008F000002806D00378032B05D943685B68984726
:1009000010BD01BEF6E7FFF79EFFF9E710B5041E24
:1009100006D02000FFF7DCFF002803D1002010BD27
:1009200001BEF6E72378032B04D963689B68200097
:100930009847F4E72000FFF77FFFF0E710B50028A5
:1009400006D00378032B05D94368DB68984710BDB0
:1009500001BEF6E7FFF728FFF9E710B582B0041EE5
:1009600010D0A378002B00D101BE01A80223037090
:10097000237843706378837000F064F90023A370D8
:1009800002B010BD01BEECE7082819D88000114B59
:100990001B589F460220012917D070470120FCE711
:1009A0000420F8E70520F6E70620F4E70720F2E741
:1009B0004B1EDBB2012B01D90120ECE70620EAE750
:1009C00001BE0120E7E70320E5E708231843E4E739
:1009D0000920E2E7E8390000F0B5C64600B586B068
:1009E000009101921D00052302AA1370C408130090
:1009F000547007260640967005AA1B88138002AB28
:100A00009B78937004AB1188198092789A701A8839
:100A100002A98A809B788B7103A800F0CBF8071E8F
:100A200004D0380006B080BCB846F0BD00990198EB
:100A3000FFF7AAFF042C4AD8264B9C4664442202A6
:100A4000B0462B00072E00D901BE0F240100A143A0
:100A500000D001BE012B00D901BE1468012319008A
:100A6000B1408C432B40B340234313604346072BD4
:100A700000D901BE0F230100994300D001BE7500CB
:100A8000AD19946807231900A9408C430340AB407B
:100A900023439360946901231D00B540AC43C00813
:100AA0000340B340234393614346072B00D901BE63
:100AB000094B9C466244120A084B9C46624412024F
:100AC0001368B0000F2181408B431360A9E7044AEB
:100AD000B6E7C046000440000000FCBF0002400032
:100AE00000000440F0B54500264C2D5B441C0E2C44
:100AF0000FD8E4B26400234EA65B01248440224F49
:100B00003C4208D1691819801B88B34237D20020B3
:100B1000F0BD4A26F1E70C2817D884001B4F3C593A
:100B2000A7461B4C00E01B4C1E80002CECD00C2870
:100B300020D88000184F38588746184CF4E7184CD6
:100B4000F2E7184CF0E7184CEEE701BE0024EBE7A3
:100B5000164CE9E70127B942D6D2605C401980B251
:100B600082181A804A1CBA42CEDA61184E78761979
:100B7000B6B2C9E701BE0027EDE71027EBE70C4846
:100B8000C6E7C046103B0000361500000C3A0000D6
:100B9000DC3A0000F03A0000403A0000F43A00006D
:100BA000043B0000083B00000C3B0000E03A000062
:100BB000000D0204F0B583B005000026FFF799FD93
:100BC000070028786978AA786B460633FFF78AFF12
:100BD000041E0ED16B4606331B88DA08D2B20721F9
:100BE0000B4016498A5C01369E401640731E9E419A
:100BF000F6B2002C01D1002E1DD1002C05D03800FA
:100C0000FFF77BFD200003B0F0BD28786978AA7853
:100C10006B460633FFF766FF041EF0D16B46DA8899
:100C2000D308DBB207210A40044806399140C25C70
:100C30000A43C254E3E7024CE1E7C0464402002005
:100C4000010D020430B583B00400FFF752FD05002A
:100C500020786178A2786B460633FFF743FF0028BF
:100C60000BD16B46DA88D308DBB207210A40074C68
:100C700006399140E25C8A43E254002800D001BE6C
:100C80002800FFF73AFD03B030BDC0464402002003
:100C9000F0B5DE4657464E464546E0B585B00700FE
:100CA0008846934601934200474BD15A431C0E2B72
:100CB00012D8DAB25200444BD35A0122BA40434808
:100CC000024092465B1A9BB29946002500260024FA
:100CD0004346B8461F0016E04A23EEE701205B4674
:100CE000002B07D031002000019B98475B46197804
:100CF00000F061F9002815D15346002B21D10134B1
:100D0000E4B20135ADB24D4555D2002FE6D03100E9
:100D100020000E9B98470100387800F04CF900281D
:100D2000E8D0DCE703A84346037044708670FFF701
:100D300041FF0028E0D147460F9B1F705C709E70FA
:100D40003AE043460C2B15D89B00214AD3589F46C6
:100D5000204A00E0204A43460C2B1CD89B001F4928
:100D6000CB589F461E4AF6E71E4AF4E71E4AF2E7B2
:100D70001E4AF0E701BE0022EDE71D4AEBE7012322
:100D8000611C994204DA11194878691C884207DD10
:100D90000136F6B2B5E701BE0023F1E71023EFE715
:100DA0000134E4B29C4204D2115DA942F8D9002674
:100DB000A7E70026A5E70F4805B0F0BCBB46B24642
:100DC000A946A046F0BDC046103B00003615000005
:100DD000743A0000DC3A0000F03A0000A83A000043
:100DE000F43A0000043B0000083B00000C3B00000C
:100DF000E03A0000020D020400B583B00191002327
:100E0000009300220021FFF743FF03B000BD000064
:100E10000020002802D0012040427047044B1B5C98
:100E2000002B02D10130C0B2F3E740B2F5E7C04673
:100E3000F83B000070B504000D00FFF7E9FF0E4B12
:100E40001B5D002B0DD0201A1030C40164198023C3
:100E50001B019C466444A400084BE3587F201840C3
:100E600070BDE401641980231B019C466444A40006
:100E7000024BE358F2E7C046F83B00000000014097
:100E800070B5040005A90D781049095C002913D13B
:100E900001020A4319438020C0050143002D11D1EE
:100EA000E401E41880231B019C466444A400084B21
:100EB0000022E250002070BD002D01D00548FAE765
:100EC0000548F8E7100001F0B9FCF4E7F83B000032
:100ED00000000140010C0204020C0204F0B5CE46F1
:100EE000474680B585B00C00914647080123034072
:100EF0009846FFF78DFF0390254B1D5D1B57002B78
:100F000003DB244B1E5D002416E07F231D40C3B28B
:100F1000ED18EDB2F5E7E2B26B46197B4B46013BAB
:100F20005842434101934346009333002800FFF7A2
:100F3000A7FF23E00134A4B22A006B0016495B5AD4
:100F4000A3421AD9AB0015495B581B5DBB42F1D1D6
:100F5000134B9B5C002B02D0B3B2A34213D14B4680
:100F6000022B05D031002800FFF764FF00280CD1C8
:100F70004B46002BCFD1002000E00A4805B0C0BC92
:100F8000B946B046F0BD0748F8E70748F6E7C0465F
:100F9000F43B0000103C0000143C0000E000002086
:100FA000F83B0000010C0204000C020410B5022200
:100FB000FFF794FF10BD10B50022FFF78FFF4342EB
:100FC0005841C0B210BD0000F0B58378DA08272B75
:100FD00004D8304CA4466244120200E02E4AC57880
:100FE0000720034008300C00844300D001BE0F20CE
:100FF0002C00844300D001BE106801249C40A04313
:1010000020431060072B00D901BE0F200C00844341
:1010100000D001BE5E00F618946807200700B740B4
:10102000BC430840B0402043906094690120060012
:101030009E40B443CE083040984020439061072B37
:1010400000D901BE0F202C00844300D001BE1348FC
:101050001018000A124CA4466044000204689F0065
:101060000F26BE40B4430F263540BD402C430460DC
:10107000022903D0032908D00020F0BD072B00D996
:1010800001BE012199401164F6E7012199405164A4
:10109000F2E7C04600044000000004400000FCBF2E
:1010A0000002400030B5C308272830D8194A9446BA
:1010B00063441B02072210401A68012181408A43C1
:1010C0000A431A60072800D901BE440024189A6810
:1010D0000721A1408A4301210D00A5402A439A60BF
:1010E0009A6981408A439A61072800D901BE0A4A59
:1010F000944663441B0A094A944663441B021A68D7
:1011000080000F2181408A431A60002030BD044BCB
:10111000D0E7C046000440000000FCBF00024000D1
:101120000000044001280DD0022811D0002801D071
:1011300009487047002A03D001230B600020F8E71C
:101140000023FAE701235A40D2B20A600020F0E7F8
:1011500002230B600020ECE700120204F8B5CE4633
:10116000474680B504000D00417A0901384B5B18F1
:101170001879A37AC018C7B2002A14D023000C3300
:1011800003CA03C3217B627B380001F0BBF8061E53
:101190005CD120000C30FFF7B9FBA0613000C0BC6F
:1011A000B946B046F8BD2100083120000C300123BB
:1011B000012200F065FF061E02D0002EEED1E8E706
:1011C00001232375234A926A92090321114089461B
:1011D0008B40984600F0A8FF43465B08C3184A4678
:1011E000D3401A00002D0DD000232800002101F06B
:1011F0006FFD194A002301F04BFD013000280BD18F
:10120000164ECBE7627A1201114B9B189A68102395
:101210009B1A01209840F1E7421E207B617B00F081
:10122000A1FF002801D00D4EB8E7207B617B01F0C3
:101230008BF8002801D0094EB0E7217B627B380093
:1012400001F060F80028B8D0044EA7E7034EA5E7E8
:10125000443B000000000340C0FD320F01120204B5
:10126000F8B504000E001700817A3200406801F0E2
:1012700019FA0500002F02D0B368022B03D0002D0D
:101280000BD02800F8BDA37A9B01626894466344A2
:101290002933FF3306221A60F1E7200000F0E4FA58
:1012A0006168A07A0B680122824013430B60E8E773
:1012B000F8B504000D001600002966D0427A12012C
:1012C000354B9B189A6801239340013B8B425ED3B8
:1012D000B14200D84E1E2C23E05C0133E75CA37AB8
:1012E0009B016268944663440D33FF3300221A6009
:1012F000A37A6A1E9B0161688C4663441533FF33F1
:101300001A6000230922254900F0D0FD002809D0E9
:10131000002309222249380000F0C8FD00282ED001
:10132000012000E000206368A17A8A019A1829321E
:10133000FF321268122A26D08A019A182932FF3207
:101340001268062A1DD00022002802D0002A00D1EF
:10135000AE1B89015B180D33FF331E606268A17AF2
:101360008B01D3180933FF331B689E4211D88901C2
:1013700052180932FF320023136000200AE00020D7
:10138000D1E7053AE0E70122DEE7064802E005483A
:1013900000E00020F8BDC046443B0000D03B000008
:1013A000AC3B00000012020410B5041E06D02378E6
:1013B000002B05D0200000F0C7FB10BD01BEF6E7F2
:1013C00020002C3000F0BDFD20002D3000F0B9FDD4
:1013D000F0E70000F0B5DE464F464646C0B59CB08B
:1013E00005000E009046019324AB1B78994626AB6E
:1013F0001B789B46002800D190E030220021280075
:1014000002F0B1FA0F232B72F0332C22AB540132CD
:10141000AB54F63B564A0C21300000F06AFD002820
:1014200000D17DE00027002800D181E00C232B7241
:1014300003786B724278AA721B014E4A9B586B600C
:101440000E2100F089FD0400002C01D12C23EE5464
:10145000002C16D14346FF2B13D0002F6AD02B004F
:10146000083309224249404600F020FD002800D1FF
:101470006FE00E2100F070FD041E02D12D234246C4
:10148000EA54002C5ED000231B93002C63D0002C68
:101490003BD12598AB695843374901F007FAC3B2ED
:1014A000002B5FD104330293002303931B9A049211
:1014B000FF2210400590012249465140CAB20692CF
:1014C0000793089302AA13770A930B93282202A981
:1014D0008B540D935B46002B00D001240E940F9487
:1014E00002231093002311931293139314931593D3
:1014F00016931793189303331993023B1A933A00E8
:1015000002A92800FFF7ACFE0400002C2CD120001B
:101510001CB0E0BCBB46B146A846F0BD01BE6CE7BE
:101520000923164A0C21300000F0E3FC01277AE77A
:10153000134C89E72B00083309221049404600F07C
:10154000B5FC93E7279A25992800FFF707FE0400CA
:1015500099E70B4C97E73A001BA90198FFF7E2FDCA
:10156000040094E705239EE72800FFF71DFFCEE760
:10157000AC3B0000443B000040420F00D03B000069
:101580000012020470B506000C1C1500002828D0BB
:101590000021201C01F012FB002824D11549201C39
:1015A00001F020FB002820D1002D20D06808B3696D
:1015B0009C466044290001F079F905000E49201C81
:1015C00001F066FD041C280002F056F8211C01F011
:1015D0005FFD01F0ABFB020029003000FFF768FE61
:1015E00070BD01BED4E70548FAE70448F8E70348B0
:1015F000F6E7C0460000C8420AD7233C00120204A6
:1016000070B5041E12D000F029F9002810D16168CD
:10161000A07A0A6801231D0085402A430A60626897
:10162000A17A8B401B029360002070BD01BEEAE7E7
:101630000048FAE703190204002808D04168807ABC
:101640000B680122824093430B600020704701BE6B
:10165000F4E770B505000C00FFF74BF8E368002BCA
:1016600002D0FFF74AF870BD2B68E3602C60F8E702
:1016700070B504000D00FFF73CF801E00C331C00CE
:101680002368064A934205D0AB42F7D1EB6823604A
:101690000023EB60FFF731F870BDC04689070000FA
:1016A00010B5011E03D00348FFF7D3FF10BD01BEE4
:1016B000F9E7C046CC00002010B5011E03D0034856
:1016C000FFF7D6FF10BD01BEF9E7C046CC000020F1
:1016D00010B500F007FF002010BD00000023042B10
:1016E00007D89A0005495258002A04D10133DBB2C9
:1016F000F5E7002070470120FCE7C04650020020BB
:1017000070B5022906D008292ED0012955D001BE76
:10171000012030E02D4B00221A7001202BE0280020
:101720002B012B4A9E582B00002401E00133DBB231
:101730000101274A5218127B9A420DD90101244A0D
:101740005218527BD218920022495258002AEDD0EA
:1017500001229A401443E9E7002C02D033681C436D
:1017600034600135EDB200E00025002DD7D0174BD5
:1017700000221A70012070BD0133DBB20101144A4E
:101780005218127B9A4215D90101114A5218527B04
:101790009A1892000F4951580029EDD04C688A7A66
:1017A00004329201A2185268002AE5DA0020E2E72A
:1017B0000300E3E70130C0B200E000200028F7D0CA
:1017C000024B01221A700120D5E7C04664020020B6
:1017D000443B00005002002070B5EFF30583103B3E
:1017E0009AB219B20023002B1ED00022002B2FD159
:1017F00018481B011C581600910161183D31FF313A
:101800000D68C3185B7BD2189200134BD258D36972
:10181000002B02D0106A29009847B601A419313470
:10182000FF342560236870BD1C010A480019807BC5
:10183000814206DB2600074CA419247B0419A1422F
:1018400002DB0133DBB2CEE7D2B2121AD2B2CDE75D
:1018500001BEE8E7443B000050020020014B18782D
:101860007047C0466402002010B50400002305E064
:10187000E2182432002111700133DBB2042BF7D9B6
:10188000FFF72CFF00280AD0627A1201064B9B1842
:101890005B7BA27A9B189B00044A9C5010BD0448B5
:1018A000FFF7FEFEF0E7C046443B00005002002078
:1018B000D0000020F0B5C64600B582B005008846CD
:1018C00017004378194E1B01F3185C7B8378E418EA
:1018D000E4B2FEF70EFFA400154BE3584246DA616E
:1018E0001F62FEF70AFF6B781B01F618B47BAB781A
:1018F000E5182C1E06DB0F4B1B681F222A40D34025
:10190000DB070FD46B461C80032301930A4968460A
:1019100000F094FD002C05DB1F231D401E3BAB4057
:10192000044A136002B080BCB846F0BD443B0000DE
:101930005002002000E100E0D9170000F0B505AC2E
:1019400026788C78A50145193935FF352D68002E8C
:1019500007D0A40104193134FF341700AF432760C6
:1019600024688C78002E20D01543A401001939304A
:10197000FF30056048780001184A1218927B887879
:101980001118002913DB8A08154DC03292005659F0
:1019900003242140C900FF2004008C40A6439B0182
:1019A0001840884030435051F0BD9543DDE70F2289
:1019B0000A40083A9208063292000A488446624475
:1019C000556803242140C900FF2004008C40A54332
:1019D0009B011840884028435060E5E7443B0000E5
:1019E00000E100E000ED00E0002800D001BE0800AA
:1019F00070470000F0B5C64600B504000E001500A3
:101A0000407AA37A042A00D991E0920049498A5881
:101A100097469A0163689F182137FF373968090C88
:101A20000F23194088463B6843490B403B6063687D
:101A30009C46624413002533FF331F68C022920086
:101A40003A431A6041460E39C9B2FFF7CDFF010093
:101A50003000FFF7ABFA002803D1641924340023C7
:101A6000237080BCB846F0BD9A0163689F18213787
:101A7000FF373968090B0F23194088463B682F4907
:101A80000B403B6063689C46624413002533FF3380
:101A90001A68C0273A431A60D4E79A0163689F180E
:101AA0002137FF373968090A0F23194088463B68F8
:101AB00023490B403B6063689C4662441300253316
:101AC000FF331A6830273A431A60BBE79A0163680C
:101AD0009F182137FF37396809090F2319408846B5
:101AE0003B68F0218B433B6063689C466244130073
:101AF0002533FF331A680C273A431A60A2E79A018C
:101B000063689F182137FF373B680F2119408846CB
:101B10003B680F218B433B6063689C466244130023
:101B20002533FF331A6803273A431A608AE70548CA
:101B300097E7C046303B0000FFFFF0FFFF0FFFFFBD
:101B4000FFF0FFFF0021020470B5051E27D06A7A5E
:101B50001201324B9B189B7BAA7A991800290ADB49
:101B60001F220A40012393402D4980228B50BFF34E
:101B70004F8FBFF36F8F6B68002B38D06A7A1201DA
:101B8000264B9B185B7BAA7A9B189B00254A002159
:101B90009950FFF7A3FD002803D0002307E001BE02
:101BA000D5E72148FFF788FDF7E70133DBB2042BC7
:101BB000FBD9002401E00134E4B2042C09D82B192C
:101BC000243319780029F6D022002800FFF712FFED
:101BD000F1E76968A87A0B680122824093430B60A1
:101BE0002B78002B07D000236B600F332B722B7DDB
:101BF000002B05D170BD28000830FFF723F8F2E76D
:101C0000287B697B00F0C0FB002800D001BE2800C3
:101C10000C30FEF7A2FE00232B75EBE7443B0000DF
:101C200000E100E050020020D0000020F0B583B0B9
:101C300004000D00037D002B09D000266A46164BD8
:101C400003CB03C2002E04D0300003B0F0BD134E0E
:101C5000F4E727000C37002200213800FEF747FE8A
:101C6000002801D00E4EEFE76A4629003800FEF743
:101C700065FE002801D00A4EE6E700220121380067
:101C8000FEF735FE002801D0054EDDE73800FEF7EF
:101C90003DFEA061D8E7C046543B0000031C02048F
:101CA000011C0204F8B504000D0001000831407A5F
:101CB000264B0001C65866601B181879A37AC01815
:101CC000C7B2002A19D023000C3303CA03C3200073
:101CD0000C30FEF71BFEA061217B627B380000F018
:101CE00011FB002825D1A17A2A00606800F016FCBB
:101CF0000600002E1FD03000F8BD20000C3001235C
:101D0000012200F0BDF9061E02D0002EF1D1EAE753
:101D1000012323750E492000FFF788FF061EF4D12A
:101D2000217B627B380000F0EDFA0028EDD0094EEF
:101D3000DFE7084EDDE72000FFF796FD6168A07A37
:101D40000B680122824013430B60D4E7443B000040
:101D500040420F00011C020470B504001600002868
:101D600004D0FF2904D0104D280070BD01BEF8E753
:101D700030220021200001F0F6FD0F232372210004
:101D800008310C20FFF738F8051E05D0002DEBD0E8
:101D90002000FFF7D9FEE7E7320004492000FFF7F3
:101DA00081FF0500F2E7C046001C02045C3B000016
:101DB00070B5041E12D0FFF751FD002810D16168E4
:101DC000A07A0A6801231D0085402A430A606268E0
:101DD000A17A8B401B069360002070BD01BEEAE72C
:101DE0000048FAE703190204002809D04368827A00
:101DF000C16A92019B180933FF33196000207047B4
:101E000001BEF3E770B594B004000D00CB68C36267
:101E10004C22254901A801F09DFD6B680193AB6838
:101E200006932B7801225340DBB20393AB78002B4F
:101E30000BD0002305936B78012B08D0022B08D020
:101E4000002B2FD001BE002304E00223F2E7012380
:101E500000E003230493A17A8B01626894466344F3
:101E60003933FF331E6801AA604600F0EFFBA17A08
:101E700001AA606800F052FB05006168A07A0B6857
:101E80000122824013430B60A37A9B01626894464F
:101E900063443933FF331E602000FFF7A5FF28009D
:101EA00014B070BD0023D5E75C3B0000F0B5060020
:101EB000FF2801D0002409E0002019E09F78457830
:101EC000AF4212D00025002D12D1013494420ED21F
:101ED000A00008188578B542F7D1002B08D05F78AC
:101EE0000578AF42EAD00025EDE70125EBE70020B9
:101EF000F0BDF0B5D6464F464646C0B582B08146E5
:101F00008A4690461F00002600E00136BE4210D2ED
:101F1000B4004444A5784D45F7D101A85346037059
:101F20002378437063788370FEF744FE0028ECD179
:101F300000E00024200002B0E0BCBA46B146A8464A
:101F4000F0BD10B504000078FF2800D110BD00F0EE
:101F500031F8FF232370F9E770B584B006000D0057
:101F60008278052369460B70D3084B700723134012
:101F70008B7003AA0B8813808B78937002AB118847
:101F8000198092789A701A8869468A809B788B713A
:101F900001A8FEF70FFE041E02D0200004B070BDA1
:101FA00029003000FFF710F8041EF6D001A8FEF754
:101FB00049FEF2E710B584B00400FFF773F800287B
:101FC00000D001BE05236A461370E3085370072052
:101FD00004406B46947003AA1B8813806B469B7861
:101FE000937002AB1188198092789A701A886946AA
:101FF0008A809B788B7101A8FEF724FE04B010BD87
:1020000070B5012808D0022811D0002802D001BEE6
:10201000002000E0881A70BD881A43011B1A9A013B
:10202000D21AD2001018800100F0CAFCF3E70C00AD
:1020300000251000002122002B00121A8B411000F5
:1020400019006422002300F043FE22002B0000F060
:10205000FBFDE0E702280AD005D8002809D00128B6
:1020600009D105307047032807D10020FAE7022084
:10207000F8E70020F6E70120F4E70120F2E700008E
:10208000F0B5C64600B5804615001F00002903D0F4
:10209000002400260C480AE001BEF9E7012640466C
:1020A000FEF7E6FB00280BD0002F09D00134032CEB
:1020B00006D8064B195D8D42F0D0002EF6D0EEE723
:1020C00080BCB846F0BDC046020D0204A83B00002B
:1020D000014B18687047C046680200200B4B1B6B11
:1020E000002B01DB00207047084A094BD1588900BA
:1020F0001C2319404B015B1A9A01D31ADB005B18B1
:102100009801044B9C466044EDE7C0460000034044
:10211000080F000000366E01024B9B6A0320184036
:102120007047C0460000034070B50D4B9D6AAD0876
:1021300003231D400124AC40FFF7EEFF002806D02A
:10214000012808D000236008C018E84070BDFFF7E0
:10215000C5FF0300F7E7FFF7BBFF0300F3E7C04647
:102160000000034010B5012801D00C4810BD05291E
:1021700010D880235B029A420ED20948C0318900F0
:102180000B58084C23401202074C22401A430A50B5
:102190000020EBE70148E9E70048E7E701004A00D3
:1021A00000000140FF0000FF00FFFF00012804D0F5
:1021B00001BE012804D0002070470529F9D9F7E7AE
:1021C000052907D8C0318900034BC858000A00040C
:1021D000000CF1E70020EFE70000014030B50228D5
:1021E00001D0134830BD01291BD880204002824213
:1021F00019D21F2B19D80F480131FF3189000C5813
:102200000D4D2C4012020D4D2A4022430A500A580F
:10221000F824A243DB000734234013430B50002073
:10222000E0E70348DEE70248DCE70148DAE7C046BA
:1022300001004A0000000140FF0000FF00FFFF0016
:1022400010B502280AD001BE002A0AD0002B0AD0FD
:1022500002280AD000211160196010BD0129F2D8AE
:10226000F2E701BEF2E701BEF2E70129F2D8074C1E
:102270000131FF3189000859000A0004000C106088
:102280000959C9081F220A401A60E6E70000014008
:1022900070B582B004000E0000230193FFF744FFE5
:1022A0000500012C09D0022C0AD001BE012C0AD055
:1022B000022C14D0280002B070BD052EF6D9F2E72A
:1022C000012EF2D8F2E731002000FFF76FFF411C2A
:1022D00001914808401900F0E9FA0500EAE76D01AC
:1022E0006B4601AA31002000FFF7AAFF019B591C91
:1022F0004901009B9C4661444808401900F0D6FA09
:102300000500D7E70A2816D8012903D0022904D0EE
:102310000B4811E0052A02D9F8E7012A0DD88901F6
:10232000FF231940C03B1A40114340308000054B49
:10233000C150002000E0024870470148FCE7C04659
:1023400001004A0000000140012803D0022804D007
:102350000A487047052902D9F8E701290CD88001FD
:10236000FF231840C03B1940084305490843054B6B
:1023700018601B680020ECE70048EAE701004A000B
:1023800000FF008000000140012803D0022804D093
:102390000A487047052902D9F8E701290CD88001BD
:1023A000FF231840C03B194008438021C90508435A
:1023B000034B18600020ECE70048EAE701004A0000
:1023C00000000140012808D0022809D001BE0128E0
:1023D00009D002280ED0002070470529F7D9F3E76D
:1023E0000129F3D8F3E7C0318900064BCB5801200F
:1023F0001840F1E70131FF318900024BCB58012031
:102400001840E9E700000140094B9A68094B9A42DD
:1024100004D010308000084BC0587047002905D008
:102420001030044A830098589950F6E701BEF7E748
:1024300000ED00E00000002000000000F0B5C646FE
:1024400000B5002844D04368032B00D901BE002307
:10245000C25E4468002A1EDB93081E4FC0339B00F7
:10246000DD59AC4603263240D200FF25A8462E0097
:1024700096406546B5432E00A4014546254095404B
:102480003543DD51144B9A68144B9A421AD0002000
:1024900080BCB846F0BD0F231340083B9B080633B1
:1024A0009B000D4DAC4663445E6803252A40D20074
:1024B000FC352F009740BE43A4012540954035438D
:1024C0005D60DFE70023C05EFFF79EFF0020DFE7CF
:1024D0000348DDE700E100E000ED00E0000000203F
:1024E0000100560010B5040006E0084B1868FEF71E
:1024F000F7F8074B9C46644480231B029C42F4D8A7
:10250000044B18686043FEF7EBF810BDC0000020D4
:102510000080FFFFC4000020FEE7000030B5002867
:1025200000D18CE0002A00D18BE053681B061B0C05
:102530009468A4048025ED022C402343D46824042D
:10254000C025AD022C40234314692406E025ED0488
:102550002C402343147F002C5FD0012423430C1D07
:10256000A4012350D368002B59D18B01C318093320
:10257000FF3300241C601369002B0AD18B01C318A0
:102580001C000D34FF34556925601133FF33946905
:102590001C608901401803001533FF33116819606E
:1025A0000F21936A1940136B1B02F024240123406E
:1025B0001943936B1B04F024240323401943136C29
:1025C0001B071B0C1943936C1C01FF252C40214356
:1025D00003002133FF3319600323516A0B40D16A92
:1025E0000C01302121400B43516B0902C024A4008F
:1025F00021400B43D16B89010D402B43516C8C0062
:102600000C2121400B4301002531FF310B60136A7F
:102610003930FF300360002030BD00249EE7012BDD
:1026200006D08B01C3180933FF3301241C60A2E7D5
:102630008B01C3180933FF3314681C609BE7024801
:10264000EAE70148E8E7C0460100B6000B1D9B0120
:1026500000221A508901401803000933FF331A6021
:1026600001000D31FF3101235B420B6004310B602F
:1026700004310B6004310B6003002533FF3308493C
:10268000196004333F21196008333C391960043361
:102690001A6004331A602130FF3010230360704742
:1026A000FF03000030B5002800D1C1E0002A00D1AE
:1026B000C0E02823D35C002B40D00123147F002CE2
:1026C0003ED0022423431469A4048025ED022C404B
:1026D000234394682404C025AD022C40234314688E
:1026E0002406E025ED042C402343546B6400156B55
:1026F0002C432405C025AD032C402343946BA40038
:1027000023431468052C1DD054682406240C23434D
:102710000C1DA40123501368062B17D09368002BBF
:1027200000D06BE08B01C3181C000934FF34002576
:1027300025602933FF3331241C6012E00023BDE7FC
:102740000024BFE7D4682406240CE0E78B01C318FB
:102750001C000934FF34012525602933FF333F2451
:102760001C608901401803000D33FF33116A1960A2
:102770000433516A19600433516919600433916953
:1027800019600F21136C1940936C1B02F024240173
:1027900023401943136D1B04F024240323401943E1
:1027A000936D1B071B0C1943136E1C01FF252C4056
:1027B000214303002133FF3319600323D16B0B4006
:1027C000516C0C01302121400B43D16C0902C02413
:1027D000A40021400B43516D89010D402B43D16D65
:1027E0008C000C2121400B4301002531FF310B608F
:1027F000D36A3930FF300360002030BD012B0BD08D
:102800008B01C3181C000934FF34012525602933CE
:10281000FF3312241C60A4E78B01C3181C00093489
:10282000FF34556925602933FF331C241C6098E769
:102830000148E2E70048E0E70100B600F8B505000E
:102840000C00174B184200D001BE154B23408022CC
:10285000D205934200D001BEF02212012B0063404A
:102860001E001640134202D00E4E3000F8BDFDF798
:1028700040FF220A0F2313407F22210011400A4FFC
:10288000DC01641880231B019C466444A400E359C6
:10289000934315401D43E551FDF72FFFE5E7C04683
:1028A00080F0FFFF0100CE0000000140002243083D
:1028B0008B4274D303098B425FD3030A8B4244D308
:1028C000030B8B4228D3030C8B420DD3FF2209024A
:1028D00012BA030C8B4202D31212090265D0030B09
:1028E0008B4219D300E0090AC30B8B4201D3CB03FF
:1028F000C01A5241830B8B4201D38B03C01A524141
:10290000430B8B4201D34B03C01A5241030B8B4242
:1029100001D30B03C01A5241C30A8B4201D3CB022D
:10292000C01A5241830A8B4201D38B02C01A524112
:10293000430A8B4201D34B02C01A5241030A8B4215
:1029400001D30B02C01A5241CDD2C3098B4201D32D
:10295000CB01C01A524183098B4201D38B01C01AAB
:10296000524143098B4201D34B01C01A5241030922
:102970008B4201D30B01C01A5241C3088B4201D3D1
:10298000CB00C01A524183088B4201D38B00C01A7E
:10299000524143088B4201D34B00C01A5241411AA5
:1029A00000D20146524110467047FFE701B50020B2
:1029B00000F0F0F802BDC0460029F7D076E7704776
:1029C00003460B437FD4002243088B4274D3030990
:1029D0008B425FD3030A8B4244D3030B8B4228D331
:1029E000030C8B420DD3FF22090212BA030C8B4257
:1029F00002D31212090265D0030B8B4219D300E0F7
:102A0000090AC30B8B4201D3CB03C01A5241830B7B
:102A10008B4201D38B03C01A5241430B8B4201D32B
:102A20004B03C01A5241030B8B4201D30B03C01A54
:102A30005241C30A8B4201D3CB02C01A5241830ACE
:102A40008B4201D38B02C01A5241430A8B4201D3FD
:102A50004B02C01A5241030A8B4201D30B02C01A27
:102A60005241CDD2C3098B4201D3CB01C01A52418E
:102A700083098B4201D38B01C01A524143098B4217
:102A800001D34B01C01A524103098B4201D30B0100
:102A9000C01A5241C3088B4201D3CB00C01A524125
:102AA00083088B4201D38B00C01A524143088B42EA
:102AB00001D34B00C01A5241411A00D20146524183
:102AC000104670475DE0CA0F00D04942031000D3A2
:102AD0004042534000229C4603098B422DD3030AF7
:102AE0008B4212D3FC22890112BA030A8B420CD307
:102AF000890192118B4208D3890192118B4204D330
:102B000089013AD0921100E08909C3098B4201D3AF
:102B1000CB01C01A524183098B4201D38B01C01AE9
:102B2000524143098B4201D34B01C01A5241030960
:102B30008B4201D30B01C01A5241C3088B4201D30F
:102B4000CB00C01A524183088B4201D38B00C01ABC
:102B50005241D9D243088B4201D34B00C01A524193
:102B6000411A00D20146634652415B10104601D320
:102B70004042002B00D54942704763465B1000D3AA
:102B8000404201B5002000F005F802BD0029F8D050
:102B900016E770477047C046844608006146FFE765
:102BA0001FB500F031FA002801D40021C8421FBD32
:102BB00010B500F0BDF94042013010BD10B500F075
:102BC00023FA002801DB002010BD012010BDC04603
:102BD00010B500F019FA002801DD002010BD012019
:102BE00010BDC04610B500F0C9F9002801DC002076
:102BF00010BD012010BDC04610B500F0BFF900287F
:102C000001DA002010BD012010BDC0461C210123A7
:102C10001B04984201D3000C10391B0A984201D3BF
:102C2000000A08391B09984201D30009043902A29D
:102C3000105C40187047C046040302020101010104
:102C40000000000000000000002B15D1002A13D165
:102C5000002906DB01DC002806D00020C043410823
:102C600002E080210906002007B4024801A14018B3
:102C7000029003BD21FFFFFF03B4684601B502982F
:102C800000F038F9019B9E4602B00CBC7047C0466C
:102C9000002B11D1002A0FD1002900D1002802D029
:102CA0000021C943080007B4024802A1401802905D
:102CB00003BDC046E1FEFFFF03B4684601B50298BC
:102CC00000F04CF8019B9E4602B00CBC7047C04619
:102CD000F0B5CE46474680B5070099463B0C9C466A
:102CE00013041B0C1D000E0061460004140C000CA4
:102CF00045434B4360436143C0182C0C20188C465D
:102D0000834203D980235B029846C44449467943F1
:102D10007243030C63442D042D0CC91800044019A0
:102D20008918C0BCB946B046F0BDC0469E2110B55A
:102D3000C905041CFFF760FF002803D1201C00F028
:102D40007BFC10BD9E21201CC90500F0C7FA00F0D5
:102D500073FC80231B069C466044F2E7F0B557469F
:102D60004E464546DE46E0B504000D0092469946C3
:102D700083B08B4230D82DD04946504600F0BEFC7F
:102D800029000600200000F0B9FC331A9846203BC9
:102D90009B4633D45A465346934042461F005346FF
:102DA00093401E00AF423AD8AF4200D178E05B4674
:102DB000A41BBD41002B00DA75E000220023009225
:102DC000019301235A4693400193012342469340C5
:102DD000009328E08242CFD9002200230092019381
:102DE0000C9B002B01D01C605D600098019903B022
:102DF000F0BCBB46B246A946A046F0BD42462023E1
:102E00009B1A5246DA40414613004A468A40170050
:102E100042461F43534693401E00AF42C4D900228E
:102E20000023009201934346002BD9D0FB07720880
:102E30001A4346467B080EE0AB4201D1A2420CD8B1
:102E4000A41A9D41012024196D410021013E24183E
:102E50004D41002E06D0AB42EED9013E24196D4102
:102E6000002EF8D1009801995B4600196941002BAA
:102E700024DB2B005A464446D3402A00E2401C0083
:102E80005B461500002B2ADB26009E4033002600FF
:102E90004746BE403200801A9941009001919FE759
:102EA000A342BCD883E74246202300219B1A00227C
:102EB000009101920122DA40019286E742462023E6
:102EC0009B1A2A0046469A402300F3404446134387
:102ED0002A00E2401C005B461500002BD4DA424673
:102EE0002F002023260097409B1ADE403B003343EF
:102EF000CDE7C046F8B5CE46474680B591469846E0
:102F000004000D0000F006FC07000E0002000B009C
:102F100048464146FFF7DCFE241A8D41089B3800E5
:102F200031001C605D60C0BCB946B046F8BDC0460B
:102F300070B5420045024E024C00C30F6D0A0120DD
:102F4000120E760A240EC90FFF2A06D0FF2C03D0DA
:102F5000A24201D1B54206D070BD002DFCD1FF2C9C
:102F6000FAD1002EF8D18B4206D00120002AF3D1ED
:102F70002800431E9841EFE70020EDE770B54200BE
:102F800045024E024C00C30F6D0A120E760A240E43
:102F9000C80FFF2A1BD0FF2C0ED0002A1BD1002CFB
:102FA00001D1002E1CD0002D0CD083421CD0022158
:102FB000581E0840013870BD002E22D1002AF4D1DD
:102FC000002DF2D10028F6D101204042F3E7002D78
:102FD00017D1FF2CF0D0002CE7D1002EE5D1E6E789
:102FE0000020002DE7D0E2E7A24205DCEADBB54293
:102FF00002D8E7D30020DEE74342584140000138C1
:10300000D9E702204042D6E770B5420045024E02A1
:103010004C00C30F6D0A120E760A240EC80FFF2A49
:103020000BD0FF2C0DD0002A1FD1002C16D1002E62
:1030300014D10020002D10D009E0002D0CD1FF2C60
:1030400013D1002E08D1002A08D0834212D00221C9
:10305000581E0840013800E0022070BD002DF4D158
:103060000028FAD101204042F7E7002CEDD1002ED4
:10307000EBD1ECE7A24205DCF2DBB54202D8EFD39C
:103080000020EAE74342584140000138E5E7C046E6
:10309000F0B54F464646D64644024500C0B5640AE0
:1030A0000F1C2D0EC60F002D00D18DE0FF2D00D17D
:1030B00092E00023802099469A46E400C00404432D
:1030C0007F3D7802430A98467B001B0EFF0F002BC2
:1030D00000D170E0FF2B00D186E04246D000802274
:1030E0007F3BED180023D204024390469C463100FA
:1030F0004B467940681C0F2B1CD8764A9B00D3584E
:103100009F4639004446E2465346022B0FD0032B1C
:1031100000D1D7E0012B37D100200024C005204387
:10312000C9070843E0BCBA46B146A846F0BDFF2037
:103130000024F3E7260C2404220C44462404240C27
:10314000434627001B0C574374435A435E431219EE
:103150003B0C9B189C4203D9802252029446664441
:103160003F041A043F0CD2199401671EBC411B0C8A
:10317000920E9B1914439B011C431B0100D49BE03E
:10318000012362081C40144302007F32002A64DDE0
:10319000630704D00F232340042B00D00434230101
:1031A00003D502004C4B80321C40FE2ABFDCA40138
:1031B000640AD0B2B2E74346002B3DD14A46013300
:1031C0001A4391469C4692E7002C29D10423994644
:1031D000033B00259A4674E7002C1BD1082399462F
:1031E000063BFF259A466CE74346FF35002B0BD183
:1031F00002234A461A4391469C4678E753463100DB
:10320000022B00D083E792E703234A461A439146F4
:103210009C466CE70C239946093BFF259A4650E7EC
:103220002000FFF7F3FC7625431F9C4000236D42EE
:1032300099469A462D1A44E74046FFF7E7FC424676
:10324000431F9A4000232D1A90469C46763D4EE738
:1032500080240021FF20E40360E701239B1A1B2B3D
:1032600000DD59E722009E30DA4084401300621EE0
:1032700094411C43630704D00F232340042B00D048
:10328000043463011AD50120002447E78020C003DD
:10329000044209D04346034206D144460443640233
:1032A0003900FF20640A39E78020C0030443640228
:1032B0003100FF20640A31E7280065E7A4010020FF
:1032C000640A2BE78020C00304436402FF20640AE1
:1032D00024E7C046183C0000FFFFFFF7F8B5CE46D4
:1032E000474643025B0A4E02DA009446720A914650
:1032F00045004A0080B52D0E1F00C40F120EC90FE5
:10330000B609FF2A5BD0012041408C4239D0A81A6F
:1033100000285ADD002A6AD0FF2D00D1D9E0802292
:10332000D20416431B2800DCE9E001206346181A8A
:10333000430100D4B4E0800187093800FFF766FC40
:1033400005388740854200DCCCE02D1AB54838406E
:10335000430704D00F230340042B00D00430430163
:1033600000D4A0E06A1CFE2D00D18DE08001470A48
:10337000D2B2D0053843E4072043C0BCB946B046BA
:10338000F8BDA81A8046002845DD002A70D0FF2D20
:1033900000D19EE08023DB041E4343461B2B00DC50
:1033A000D2E00120604443017AD50135FF2D6BD076
:1033B00001239D4A0340400810401843C8E7002EEF
:1033C00020D08C4223D02800FF38002839D0571B4A
:1033D000002D00D09DE06346002B00D1DBE07B1E7A
:1033E000012F00D10DE1FF2F71D01F0098E0002EBA
:1033F00000D1A7E0421E012800D1E6E0FF2868D0F6
:1034000010008FE701204140A14200D07FE7FF205C
:1034100040428046A8444046002838D0511B002D29
:1034200000D1AEE0FF2A00D1DFE080236046DB045C
:10343000184384461B2900DCD9E0012015008019BF
:10344000B1E7FE206A1C104271D1002D00D0A6E029
:103450006346002B00D1D9E00022002E00D188E77E
:10346000981B430100D4E1E063460C00F01A6FE7BB
:10347000002E00D1B7E00200013A012800D19CE003
:10348000FF2826D0904688E7FF22002771E7FE201C
:103490006A1C104264D0FF2AF6D0150066447008FA
:1034A000430700D056E7C308FF2D12D05B025F0A26
:1034B000EAB25EE76246002A00D196E0002E08D00C
:1034C0008022D203134204D04846104201D10C009E
:1034D0004B46002BD8D08027FF031F437F02FF22DB
:1034E0007F0A46E720233A00451B38000135EA40B1
:1034F0005D1BA840431E98410025104328E7202368
:103500001B1A32009E40C2403000431E98411043B7
:103510000CE7FF2ADBD080236046DB041843844697
:103520001B2F56DD01200C001500301A00E7634602
:103530009F1B7B013DD4002F00D0FEE6002400221B
:10354000002716E70500AFE7320043464146DA4060
:1035500020235B1A9E403000431E9841104321E710
:10356000002DA7D16346002B59D00022002E00D198
:10357000FFE630006044430192D52A4B01351840E4
:103580008EE76346002B47D04B1E012915D0FF293B
:103590002BD019004EE70C004B463D0084E76246F5
:1035A000002A8BD1002E92D180270024FF22FF0316
:1035B000DFE663460C00F71ABFE6300060440125E1
:1035C000430100D46CE70225F2E663460125981B0F
:1035D000AEE6202364466046FC40DF1BB840431E35
:1035E000984120439FE705005EE74B4671E72023A3
:1035F00065466046CD40591A8840431E984128438D
:103600001CE763460C000125F01A91E6002E95D0C8
:103610000C004F460022ACE64B460D0044E74F46F7
:103620000022A6E6FFFFFFFBFFFFFF7D002800D082
:1036300036E7002400279CE641024200C30F490AF6
:103640000020120E7E2A03DD9D2A02DD094A981809
:103650007047802000040143952A07DC9620821AD7
:10366000D1404842002BF3D10800F1E7963A91404F
:10367000F7E7C046FFFFFF7F70B5051E0ED0FFF7CE
:10368000C5FA9E2304001B1A962B0CDC082801DDCA
:10369000083CA5406D026D0AD8B201E0002000256B
:1036A000C005284370BD992B09DD020029001B329B
:1036B00091404A1E91410522121AD5400D43052C16
:1036C00012DC29000C4E31406A0709D00F20284037
:1036D000042805D004314A0102D59F2331401B1B29
:1036E00089014D0AD8B2DBE7621F95402900024EDE
:1036F00031406A07F4D0E9E7FFFFFFFB10B500296E
:1037000003D1FFF783FA203002E00800FFF77EFACA
:1037100010BDC046F0B557464E464546DE46E0B5BC
:103720000F001900002306009846100083B0002FF8
:1037300007DA33003C0000275E42A74101235B42C9
:103740009846002907DA4346DB430C0098460300FD
:1037500000215842A14134003D0082468946B942C9
:103760006AD867D049465046FFF7C8FF83463900FC
:103770003000FFF7C3FF5B461B1A9C46203B9B466D
:103780006BD458465146814060460B0051468140FB
:103790000A00BB4200D972E0BB4200D179E034009C
:1037A0003D005946A41A9D41002900DA74E0002129
:1037B000002001260090019159468E4001966146F5
:1037C00001268E406146009600295FD0D907560831
:1037D0000E435F086146012200230CE0AF4201D195
:1037E000A6420AD8A41BBD4124196D410139A41871
:1037F0005D41002906D0AF42F0D9013924196D414D
:103800000029F8D1009801995B4600196941002B05
:103810004DDB2E002C00DE406346DC405B46002B77
:1038200055DB34009C4023006446A6403200801AD9
:10383000994103E0B04295D9002000214346002B76
:1038400004D003000C0000215842A14103B0F0BC99
:10385000BB46B246A946A046F0BD62464846202374
:10386000514690409B1AD940030000910099604650
:103870000B43514681400A00BB4200D88CE700212F
:10388000002000900191614600299FD10098019984
:10389000D4E7B142F3D882E7614620260127761AA1
:1038A00000200021F74000900191019787E76246D0
:1038B00020239B1A2A009A40260013006246D64015
:1038C0002C001E436346DC405B46002BA9DA6246AF
:1038D0002023350094409B1ADD4023002B43A3E7AF
:1038E000084B10B50400002B02D0002100E000BFFF
:1038F000054B1868836A002B00D09847200000F021
:103900003BF8C04600000000583C000070B500269F
:103910000C4D0D4C641BA410A64209D1002600F0EA
:103920002DF80A4D0A4C641BA410A64205D170BDA7
:10393000B300EB5898470136EEE7B300EB589847D1
:103940000136F2E744010020440100204401002038
:1039500048010020002310B59A4200D110BDCC5C74
:10396000C4540133F8E703008218934200D1704732
:1039700019700133F9E70000FEE7C046F8B5C0460C
:10398000F8BC08BC9E467047F8B5C046F8BC08BCF9
:103990009E4670474A050000580500006605000075
:1039A0007405000082050000900500009E050000DF
:1039B000AC050000BA050000CA050000DA050000E9
:1039C000EA050000020F000063080000470800003D
:1039D00039080000A90700001D0700000D070000BE
:1039E00001070000070000009C090000D00900004A
:1039F00094090000C6090000A0090000A409000005
:103A0000A8090000AC090000B00900004A0B000042
:103A1000220B0000500B00004A0B0000260B000098
:103A20003A0B00004A0B00004A0B00003E0B00005E
:103A30004A0B0000420B00004A0B0000460B00003E
:103A4000740B0000540B00007A0B0000740B000094
:103A5000540B00007A0B0000740B0000740B000084
:103A6000540B0000740B0000540B0000740B00009A
:103A7000540B0000740D0000500D00007A0D000082
:103A8000740D0000540D0000640D0000740D000062
:103A9000740D0000680D0000740D00006C0D000036
:103AA000740D0000700D0000960D00007E0D0000EA
:103AB0009C0D0000960D00007E0D00009C0D000086
:103AC000960D0000960D00007E0D0000960D000082
:103AD0007E0D0000960D00007E0D0000000000002D
:103AE000000006080B0C0D0E0F1011121314151602
:103AF00000000000000810182028303840485058B6
:103B00006068707800000000000000000000000005
:103B10000000000000001700170017003F003F00E2
:103B2000400042004300430045004A004A000000B4
:103B3000121A0000681A00009A1A0000CC1A00003D
:103B4000FE1A000000000640030000001000000004
:103B500005000B00020000000200000000800000D1
:103B60000000000000000000000000000200000053
:103B700000400000004000000000000000000000C5
:103B8000030000000000000003000000000000002F
:103B9000030000000000000003000000000000001F
:103BA00003000000010000000001020300020808F9
:103BB00000030A0800041008000014080001160899
:103BC0000000180800011A0800021C0800031E0863
:103BD0000002090800030B08000411080000150882
:103BE000000117080000190800011B0800021D0849
:103BF00000031F0800000000000000000008090A80
:103C00000B0C03040506070D0E0F10110102000036
:103C100000010000120000003431000004310000F7
:103C200004310000023100000831000008310000BA
:103C30005032000002310000083100005032000014
:103C40000831000002310000FC310000FC310000AE
:103C5000FC3100008C320000E40000200000000075
:083C6000A8C4FF7F0100000071
:0C3C68007C3C0000C00000202300000095
:083C7400700100203F00000078
:103C7C000000E02EC05D0000C43900008907000080
:103C8C000117000006040000000000000000000006
:103C9C00FC3B0000000000000000000000000000E1
:103CAC000000000000000000000000000000000008
:103CBC0000000000000000000000000000000000F8
:103CCC0000000000000000000000000000000000E8
:103CDC0000000000000000000000000000000000D8
:103CEC0000000000000000000000000000000000C8
:0C3CFC0000000000E9000000C100000012
:04000003000004995C
:00000001FF
